{
  "_format": "hh-sol-artifact-1",
  "contractName": "BountyContract",
  "sourceName": "contracts/BountyContract.sol",
  "abi": [
    {
      "inputs": [],
      "stateMutability": "nonpayable",
      "type": "constructor"
    },
    {
      "inputs": [],
      "name": "BountyDoesntExist",
      "type": "error"
    },
    {
      "inputs": [],
      "name": "BountyHasExpired",
      "type": "error"
    },
    {
      "inputs": [],
      "name": "BountyIsNotOpened",
      "type": "error"
    },
    {
      "anonymous": false,
      "inputs": [
        {
          "indexed": true,
          "internalType": "address",
          "name": "owner",
          "type": "address"
        },
        {
          "indexed": true,
          "internalType": "address",
          "name": "approved",
          "type": "address"
        },
        {
          "indexed": true,
          "internalType": "uint256",
          "name": "tokenId",
          "type": "uint256"
        }
      ],
      "name": "Approval",
      "type": "event"
    },
    {
      "anonymous": false,
      "inputs": [
        {
          "indexed": true,
          "internalType": "address",
          "name": "owner",
          "type": "address"
        },
        {
          "indexed": true,
          "internalType": "address",
          "name": "operator",
          "type": "address"
        },
        {
          "indexed": false,
          "internalType": "bool",
          "name": "approved",
          "type": "bool"
        }
      ],
      "name": "ApprovalForAll",
      "type": "event"
    },
    {
      "anonymous": false,
      "inputs": [
        {
          "indexed": true,
          "internalType": "uint256",
          "name": "tokenId",
          "type": "uint256"
        },
        {
          "indexed": false,
          "internalType": "address",
          "name": "owner",
          "type": "address"
        },
        {
          "indexed": false,
          "internalType": "address",
          "name": "contributor",
          "type": "address"
        },
        {
          "indexed": false,
          "internalType": "string",
          "name": "attestationHash",
          "type": "string"
        },
        {
          "indexed": false,
          "internalType": "enum PGBountyState",
          "name": "state",
          "type": "uint8"
        }
      ],
      "name": "BountyCreated",
      "type": "event"
    },
    {
      "anonymous": false,
      "inputs": [
        {
          "indexed": true,
          "internalType": "uint256",
          "name": "tokenId",
          "type": "uint256"
        },
        {
          "indexed": true,
          "internalType": "address",
          "name": "contributor",
          "type": "address"
        },
        {
          "indexed": false,
          "internalType": "string",
          "name": "attestationHash",
          "type": "string"
        }
      ],
      "name": "ProofSubmitted",
      "type": "event"
    },
    {
      "anonymous": false,
      "inputs": [
        {
          "indexed": true,
          "internalType": "address",
          "name": "from",
          "type": "address"
        },
        {
          "indexed": true,
          "internalType": "address",
          "name": "to",
          "type": "address"
        },
        {
          "indexed": true,
          "internalType": "uint256",
          "name": "tokenId",
          "type": "uint256"
        }
      ],
      "name": "Transfer",
      "type": "event"
    },
    {
      "inputs": [
        {
          "internalType": "address",
          "name": "to",
          "type": "address"
        },
        {
          "internalType": "uint256",
          "name": "tokenId",
          "type": "uint256"
        }
      ],
      "name": "approve",
      "outputs": [],
      "stateMutability": "nonpayable",
      "type": "function"
    },
    {
      "inputs": [
        {
          "internalType": "address",
          "name": "owner",
          "type": "address"
        }
      ],
      "name": "balanceOf",
      "outputs": [
        {
          "internalType": "uint256",
          "name": "",
          "type": "uint256"
        }
      ],
      "stateMutability": "view",
      "type": "function"
    },
    {
      "inputs": [],
      "name": "fetchBounties",
      "outputs": [
        {
          "components": [
            {
              "internalType": "uint256",
              "name": "tokenId",
              "type": "uint256"
            },
            {
              "internalType": "uint256",
              "name": "submissionDeadline",
              "type": "uint256"
            },
            {
              "internalType": "uint256",
              "name": "verificationPeriod",
              "type": "uint256"
            },
            {
              "internalType": "uint256",
              "name": "submittedTimestamp",
              "type": "uint256"
            },
            {
              "internalType": "address payable",
              "name": "owner",
              "type": "address"
            },
            {
              "internalType": "address payable",
              "name": "contributor",
              "type": "address"
            },
            {
              "internalType": "string",
              "name": "attestationHash",
              "type": "string"
            },
            {
              "internalType": "enum PGBountyState",
              "name": "state",
              "type": "uint8"
            }
          ],
          "internalType": "struct BountyContract.Bounty[]",
          "name": "",
          "type": "tuple[]"
        }
      ],
      "stateMutability": "view",
      "type": "function"
    },
    {
      "inputs": [
        {
          "internalType": "uint256",
          "name": "tokenId",
          "type": "uint256"
        }
      ],
      "name": "getApproved",
      "outputs": [
        {
          "internalType": "address",
          "name": "",
          "type": "address"
        }
      ],
      "stateMutability": "view",
      "type": "function"
    },
    {
      "inputs": [
        {
          "internalType": "address",
          "name": "owner",
          "type": "address"
        },
        {
          "internalType": "address",
          "name": "operator",
          "type": "address"
        }
      ],
      "name": "isApprovedForAll",
      "outputs": [
        {
          "internalType": "bool",
          "name": "",
          "type": "bool"
        }
      ],
      "stateMutability": "view",
      "type": "function"
    },
    {
      "inputs": [],
      "name": "name",
      "outputs": [
        {
          "internalType": "string",
          "name": "",
          "type": "string"
        }
      ],
      "stateMutability": "view",
      "type": "function"
    },
    {
      "inputs": [
        {
          "internalType": "uint256",
          "name": "submissionDeadline",
          "type": "uint256"
        },
        {
          "internalType": "uint256",
          "name": "verificationPeriod",
          "type": "uint256"
        },
        {
          "internalType": "string",
          "name": "uri",
          "type": "string"
        }
      ],
      "name": "openBounty",
      "outputs": [
        {
          "internalType": "uint256",
          "name": "",
          "type": "uint256"
        }
      ],
      "stateMutability": "payable",
      "type": "function"
    },
    {
      "inputs": [
        {
          "internalType": "uint256",
          "name": "tokenId",
          "type": "uint256"
        }
      ],
      "name": "ownerOf",
      "outputs": [
        {
          "internalType": "address",
          "name": "",
          "type": "address"
        }
      ],
      "stateMutability": "view",
      "type": "function"
    },
    {
      "inputs": [
        {
          "internalType": "address",
          "name": "from",
          "type": "address"
        },
        {
          "internalType": "address",
          "name": "to",
          "type": "address"
        },
        {
          "internalType": "uint256",
          "name": "tokenId",
          "type": "uint256"
        }
      ],
      "name": "safeTransferFrom",
      "outputs": [],
      "stateMutability": "nonpayable",
      "type": "function"
    },
    {
      "inputs": [
        {
          "internalType": "address",
          "name": "from",
          "type": "address"
        },
        {
          "internalType": "address",
          "name": "to",
          "type": "address"
        },
        {
          "internalType": "uint256",
          "name": "tokenId",
          "type": "uint256"
        },
        {
          "internalType": "bytes",
          "name": "data",
          "type": "bytes"
        }
      ],
      "name": "safeTransferFrom",
      "outputs": [],
      "stateMutability": "nonpayable",
      "type": "function"
    },
    {
      "inputs": [
        {
          "internalType": "address",
          "name": "operator",
          "type": "address"
        },
        {
          "internalType": "bool",
          "name": "approved",
          "type": "bool"
        }
      ],
      "name": "setApprovalForAll",
      "outputs": [],
      "stateMutability": "nonpayable",
      "type": "function"
    },
    {
      "inputs": [
        {
          "internalType": "uint256",
          "name": "_bountyId",
          "type": "uint256"
        },
        {
          "internalType": "string",
          "name": "_attestationHash",
          "type": "string"
        }
      ],
      "name": "submitProof",
      "outputs": [],
      "stateMutability": "nonpayable",
      "type": "function"
    },
    {
      "inputs": [
        {
          "internalType": "bytes4",
          "name": "interfaceId",
          "type": "bytes4"
        }
      ],
      "name": "supportsInterface",
      "outputs": [
        {
          "internalType": "bool",
          "name": "",
          "type": "bool"
        }
      ],
      "stateMutability": "view",
      "type": "function"
    },
    {
      "inputs": [],
      "name": "symbol",
      "outputs": [
        {
          "internalType": "string",
          "name": "",
          "type": "string"
        }
      ],
      "stateMutability": "view",
      "type": "function"
    },
    {
      "inputs": [
        {
          "internalType": "uint256",
          "name": "tokenId",
          "type": "uint256"
        }
      ],
      "name": "tokenURI",
      "outputs": [
        {
          "internalType": "string",
          "name": "",
          "type": "string"
        }
      ],
      "stateMutability": "view",
      "type": "function"
    },
    {
      "inputs": [
        {
          "internalType": "address",
          "name": "from",
          "type": "address"
        },
        {
          "internalType": "address",
          "name": "to",
          "type": "address"
        },
        {
          "internalType": "uint256",
          "name": "tokenId",
          "type": "uint256"
        }
      ],
      "name": "transferFrom",
      "outputs": [],
      "stateMutability": "nonpayable",
      "type": "function"
    }
  ],
  "bytecode": "0x60806040523480156200001157600080fd5b50604051806040016040528060058152602001642a37b5b2b760d91b8152506040518060400160405280600381526020016213919560ea1b81525081600090816200005d91906200012c565b5060016200006c82826200012c565b5050600880546001600160a01b0319163317905550620001f8565b634e487b7160e01b600052604160045260246000fd5b600181811c90821680620000b257607f821691505b602082108103620000d357634e487b7160e01b600052602260045260246000fd5b50919050565b601f8211156200012757600081815260208120601f850160051c81016020861015620001025750805b601f850160051c820191505b8181101562000123578281556001016200010e565b5050505b505050565b81516001600160401b0381111562000148576200014862000087565b62000160816200015984546200009d565b84620000d9565b602080601f8311600181146200019857600084156200017f5750858301515b600019600386901b1c1916600185901b17855562000123565b600085815260208120601f198616915b82811015620001c957888601518255948401946001909101908401620001a8565b5085821015620001e85787850151600019600388901b60f8161c191681555b5050505050600190811b01905550565b6120ea80620002086000396000f3fe6080604052600436106100f35760003560e01c806342842e0e1161008a578063a22cb46511610059578063a22cb465146102a1578063b88d4fde146102c1578063c87b56dd146102e1578063e985e9c51461030157600080fd5b806342842e0e1461022c5780636352211e1461024c57806370a082311461026c57806395d89b411461028c57600080fd5b80630f25c633116100c65780630f25c633146101a95780631248451f146101cb57806323b872dd146101ec5780632af005101461020c57600080fd5b806301ffc9a7146100f857806306fdde031461012d578063081812fc1461014f578063095ea7b314610187575b600080fd5b34801561010457600080fd5b506101186101133660046118f1565b61034a565b60405190151581526020015b60405180910390f35b34801561013957600080fd5b506101426103e7565b604051610124919061195e565b34801561015b57600080fd5b5061016f61016a366004611971565b610479565b6040516001600160a01b039091168152602001610124565b34801561019357600080fd5b506101a76101a23660046119a6565b6104a0565b005b3480156101b557600080fd5b506101be6105f4565b6040516101249190611a08565b6101de6101d9366004611b67565b6107d8565b604051908152602001610124565b3480156101f857600080fd5b506101a7610207366004611bcb565b61081c565b34801561021857600080fd5b506101a7610227366004611c07565b610893565b34801561023857600080fd5b506101a7610247366004611bcb565b6109f4565b34801561025857600080fd5b5061016f610267366004611971565b610a0f565b34801561027857600080fd5b506101de610287366004611c83565b610a74565b34801561029857600080fd5b50610142610b0e565b3480156102ad57600080fd5b506101a76102bc366004611c9e565b610b1d565b3480156102cd57600080fd5b506101a76102dc366004611cda565b610b2c565b3480156102ed57600080fd5b506101426102fc366004611971565b610baa565b34801561030d57600080fd5b5061011861031c366004611d56565b6001600160a01b03918216600090815260056020908152604080832093909416825291909152205460ff1690565b60006001600160e01b031982167f80ac58cd0000000000000000000000000000000000000000000000000000000014806103ad57506001600160e01b031982167f5b5e139f00000000000000000000000000000000000000000000000000000000145b806103e157507f01ffc9a7000000000000000000000000000000000000000000000000000000006001600160e01b03198316145b92915050565b6060600080546103f690611d89565b80601f016020809104026020016040519081016040528092919081815260200182805461042290611d89565b801561046f5780601f106104445761010080835404028352916020019161046f565b820191906000526020600020905b81548152906001019060200180831161045257829003601f168201915b5050505050905090565b600061048482610cb2565b506000908152600460205260409020546001600160a01b031690565b60006104ab82610a0f565b9050806001600160a01b0316836001600160a01b0316036105395760405162461bcd60e51b815260206004820152602160248201527f4552433732313a20617070726f76616c20746f2063757272656e74206f776e6560448201527f720000000000000000000000000000000000000000000000000000000000000060648201526084015b60405180910390fd5b336001600160a01b038216148061057357506001600160a01b038116600090815260056020908152604080832033845290915290205460ff165b6105e55760405162461bcd60e51b815260206004820152603d60248201527f4552433732313a20617070726f76652063616c6c6572206973206e6f7420746f60448201527f6b656e206f776e6572206f7220617070726f76656420666f7220616c6c0000006064820152608401610530565b6105ef8383610d19565b505050565b6060600061060160075490565b90506000606060005b838110156107d057600060096000610623846001611dd9565b815260208101919091526040016000206007015460ff16600581111561064b5761064b6119d0565b036107be57600061065d826001611dd9565b600081815260096020908152604091829020825161010081018452815481526001820154928101929092526002810154928201929092526003820154606082015260048201546001600160a01b03908116608083015260058301541660a082015260068201805493945091929091839160c0840191906106dc90611d89565b80601f016020809104026020016040519081016040528092919081815260200182805461070890611d89565b80156107555780601f1061072a57610100808354040283529160200191610755565b820191906000526020600020905b81548152906001019060200180831161073857829003601f168201915b5050509183525050600782015460209091019060ff16600581111561077c5761077c6119d0565b600581111561078d5761078d6119d0565b815250508486815181106107a3576107a3611dec565b60209081029190910101526107b9600186611dd9565b945050505b806107c881611e02565b91505061060a565b509392505050565b60006107e8600780546001019055565b60006107f360075490565b90506107ff3382610d87565b6108098184610da1565b610814818686610e43565b949350505050565b6108263382610f2a565b6108885760405162461bcd60e51b815260206004820152602d60248201527f4552433732313a2063616c6c6572206973206e6f7420746f6b656e206f776e6560448201526c1c881bdc88185c1c1c9bdd9959609a1b6064820152608401610530565b6105ef838383610fa8565b600083815260096020526040902060048101546001600160a01b03166108e5576040517f3eea745700000000000000000000000000000000000000000000000000000000815260040160405180910390fd5b6000600782015460ff166005811115610900576109006119d0565b14610937576040517fc0db8d4d00000000000000000000000000000000000000000000000000000000815260040160405180910390fd5b8060010154421115610975576040517f7339b9d100000000000000000000000000000000000000000000000000000000815260040160405180910390fd5b60068101610984838583611e69565b5060078101805460ff19166001179055600581018054336001600160a01b0319909116811790915542600383015560405185907fb2217a1ebc8d6435d328a4607aa9709269fe4cb393535a1675721d8431a54018906109e69087908790611f2a565b60405180910390a350505050565b6105ef83838360405180602001604052806000815250610b2c565b6000818152600260205260408120546001600160a01b0316806103e15760405162461bcd60e51b815260206004820152601860248201527f4552433732313a20696e76616c696420746f6b656e20494400000000000000006044820152606401610530565b60006001600160a01b038216610af25760405162461bcd60e51b815260206004820152602960248201527f4552433732313a2061646472657373207a65726f206973206e6f74206120766160448201527f6c6964206f776e657200000000000000000000000000000000000000000000006064820152608401610530565b506001600160a01b031660009081526003602052604090205490565b6060600180546103f690611d89565b610b283383836111ae565b5050565b610b363383610f2a565b610b985760405162461bcd60e51b815260206004820152602d60248201527f4552433732313a2063616c6c6572206973206e6f7420746f6b656e206f776e6560448201526c1c881bdc88185c1c1c9bdd9959609a1b6064820152608401610530565b610ba48484848461127c565b50505050565b6060610bb582610cb2565b60008281526006602052604081208054610bce90611d89565b80601f0160208091040260200160405190810160405280929190818152602001828054610bfa90611d89565b8015610c475780601f10610c1c57610100808354040283529160200191610c47565b820191906000526020600020905b815481529060010190602001808311610c2a57829003601f168201915b505050505090506000610c6560408051602081019091526000815290565b90508051600003610c77575092915050565b815115610ca9578082604051602001610c91929190611f59565b60405160208183030381529060405292505050919050565b610814846112fa565b6000818152600260205260409020546001600160a01b0316610d165760405162461bcd60e51b815260206004820152601860248201527f4552433732313a20696e76616c696420746f6b656e20494400000000000000006044820152606401610530565b50565b600081815260046020526040902080546001600160a01b0319166001600160a01b0384169081179091558190610d4e82610a0f565b6001600160a01b03167f8c5be1e5ebec7d5bd14f71427d1e84f3dd0314c0f7b2291e5b200ac8c7c3b92560405160405180910390a45050565b610b2882826040518060200160405280600081525061136e565b6000828152600260205260409020546001600160a01b0316610e2b5760405162461bcd60e51b815260206004820152602e60248201527f45524337323155524953746f726167653a2055524920736574206f66206e6f6e60448201527f6578697374656e7420746f6b656e0000000000000000000000000000000000006064820152608401610530565b60008281526006602052604090206105ef8282611f88565b60408051610100810182528481526020808201858152828401858152600060608501818152336080870190815260a0870183815288518088018a5284815260c0890190815260e089018590528c855260099097529790922086518155935160018501559151600284015590516003830155516004820180546001600160a01b03199081166001600160a01b03938416179091559451600583018054909616911617909355519091906006820190610efa9082611f88565b5060e082015160078201805460ff19166001836005811115610f1e57610f1e6119d0565b02179055505050505050565b600080610f3683610a0f565b9050806001600160a01b0316846001600160a01b03161480610f7d57506001600160a01b0380821660009081526005602090815260408083209388168352929052205460ff165b806108145750836001600160a01b0316610f9684610479565b6001600160a01b031614949350505050565b826001600160a01b0316610fbb82610a0f565b6001600160a01b03161461101f5760405162461bcd60e51b815260206004820152602560248201527f4552433732313a207472616e736665722066726f6d20696e636f72726563742060448201526437bbb732b960d91b6064820152608401610530565b6001600160a01b03821661109a5760405162461bcd60e51b8152602060048201526024808201527f4552433732313a207472616e7366657220746f20746865207a65726f2061646460448201527f72657373000000000000000000000000000000000000000000000000000000006064820152608401610530565b6110a783838360016113ec565b826001600160a01b03166110ba82610a0f565b6001600160a01b03161461111e5760405162461bcd60e51b815260206004820152602560248201527f4552433732313a207472616e736665722066726f6d20696e636f72726563742060448201526437bbb732b960d91b6064820152608401610530565b600081815260046020908152604080832080546001600160a01b03199081169091556001600160a01b0387811680865260038552838620805460001901905590871680865283862080546001019055868652600290945282852080549092168417909155905184937fddf252ad1be2c89b69c2b068fc378daa952ba7f163c4a11628f55a4df523b3ef91a4505050565b816001600160a01b0316836001600160a01b03160361120f5760405162461bcd60e51b815260206004820152601960248201527f4552433732313a20617070726f766520746f2063616c6c6572000000000000006044820152606401610530565b6001600160a01b03838116600081815260056020908152604080832094871680845294825291829020805460ff191686151590811790915591519182527f17307eab39ab6107e8899845ad3d59bd9653f200f220920489ca2b5937696c31910160405180910390a3505050565b611287848484610fa8565b61129384848484611474565b610ba45760405162461bcd60e51b815260206004820152603260248201527f4552433732313a207472616e7366657220746f206e6f6e20455243373231526560448201527131b2b4bb32b91034b6b83632b6b2b73a32b960711b6064820152608401610530565b606061130582610cb2565b600061131c60408051602081019091526000815290565b9050600081511161133c5760405180602001604052806000815250611367565b80611346846115c0565b604051602001611357929190611f59565b6040516020818303038152906040525b9392505050565b6113788383611660565b6113856000848484611474565b6105ef5760405162461bcd60e51b815260206004820152603260248201527f4552433732313a207472616e7366657220746f206e6f6e20455243373231526560448201527131b2b4bb32b91034b6b83632b6b2b73a32b960711b6064820152608401610530565b6001811115610ba4576001600160a01b03841615611432576001600160a01b0384166000908152600360205260408120805483929061142c908490612048565b90915550505b6001600160a01b03831615610ba4576001600160a01b03831660009081526003602052604081208054839290611469908490611dd9565b909155505050505050565b60006001600160a01b0384163b156115b557604051630a85bd0160e11b81526001600160a01b0385169063150b7a02906114b890339089908890889060040161205b565b6020604051808303816000875af19250505080156114f3575060408051601f3d908101601f191682019092526114f091810190612097565b60015b61159b573d808015611521576040519150601f19603f3d011682016040523d82523d6000602084013e611526565b606091505b5080516000036115935760405162461bcd60e51b815260206004820152603260248201527f4552433732313a207472616e7366657220746f206e6f6e20455243373231526560448201527131b2b4bb32b91034b6b83632b6b2b73a32b960711b6064820152608401610530565b805181602001fd5b6001600160e01b031916630a85bd0160e11b149050610814565b506001949350505050565b606060006115cd836117f9565b600101905060008167ffffffffffffffff8111156115ed576115ed611adb565b6040519080825280601f01601f191660200182016040528015611617576020820181803683370190505b5090508181016020015b600019017f3031323334353637383961626364656600000000000000000000000000000000600a86061a8153600a850494508461162157509392505050565b6001600160a01b0382166116b65760405162461bcd60e51b815260206004820181905260248201527f4552433732313a206d696e7420746f20746865207a65726f20616464726573736044820152606401610530565b6000818152600260205260409020546001600160a01b03161561171b5760405162461bcd60e51b815260206004820152601c60248201527f4552433732313a20746f6b656e20616c7265616479206d696e746564000000006044820152606401610530565b6117296000838360016113ec565b6000818152600260205260409020546001600160a01b03161561178e5760405162461bcd60e51b815260206004820152601c60248201527f4552433732313a20746f6b656e20616c7265616479206d696e746564000000006044820152606401610530565b6001600160a01b038216600081815260036020908152604080832080546001019055848352600290915280822080546001600160a01b0319168417905551839291907fddf252ad1be2c89b69c2b068fc378daa952ba7f163c4a11628f55a4df523b3ef908290a45050565b6000807a184f03e93ff9f4daa797ed6e38ed64bf6a1f0100000000000000008310611842577a184f03e93ff9f4daa797ed6e38ed64bf6a1f010000000000000000830492506040015b6d04ee2d6d415b85acef8100000000831061186e576d04ee2d6d415b85acef8100000000830492506020015b662386f26fc10000831061188c57662386f26fc10000830492506010015b6305f5e10083106118a4576305f5e100830492506008015b61271083106118b857612710830492506004015b606483106118ca576064830492506002015b600a83106103e15760010192915050565b6001600160e01b031981168114610d1657600080fd5b60006020828403121561190357600080fd5b8135611367816118db565b60005b83811015611929578181015183820152602001611911565b50506000910152565b6000815180845261194a81602086016020860161190e565b601f01601f19169290920160200192915050565b6020815260006113676020830184611932565b60006020828403121561198357600080fd5b5035919050565b80356001600160a01b03811681146119a157600080fd5b919050565b600080604083850312156119b957600080fd5b6119c28361198a565b946020939093013593505050565b634e487b7160e01b600052602160045260246000fd5b60068110611a0457634e487b7160e01b600052602160045260246000fd5b9052565b60006020808301818452808551808352604092508286019150828160051b87010184880160005b83811015611acd57603f198984030185528151610100815185528882015189860152878201518886015260608083015181870152506080808301516001600160a01b038082168389015260a092508083860151168389015250505060c0808301518282880152611aa183880182611932565b9250505060e0808301519250611ab9818701846119e6565b509588019593505090860190600101611a2f565b509098975050505050505050565b634e487b7160e01b600052604160045260246000fd5b600067ffffffffffffffff80841115611b0c57611b0c611adb565b604051601f8501601f19908116603f01168101908282118183101715611b3457611b34611adb565b81604052809350858152868686011115611b4d57600080fd5b858560208301376000602087830101525050509392505050565b600080600060608486031215611b7c57600080fd5b8335925060208401359150604084013567ffffffffffffffff811115611ba157600080fd5b8401601f81018613611bb257600080fd5b611bc186823560208401611af1565b9150509250925092565b600080600060608486031215611be057600080fd5b611be98461198a565b9250611bf76020850161198a565b9150604084013590509250925092565b600080600060408486031215611c1c57600080fd5b83359250602084013567ffffffffffffffff80821115611c3b57600080fd5b818601915086601f830112611c4f57600080fd5b813581811115611c5e57600080fd5b876020828501011115611c7057600080fd5b6020830194508093505050509250925092565b600060208284031215611c9557600080fd5b6113678261198a565b60008060408385031215611cb157600080fd5b611cba8361198a565b915060208301358015158114611ccf57600080fd5b809150509250929050565b60008060008060808587031215611cf057600080fd5b611cf98561198a565b9350611d076020860161198a565b925060408501359150606085013567ffffffffffffffff811115611d2a57600080fd5b8501601f81018713611d3b57600080fd5b611d4a87823560208401611af1565b91505092959194509250565b60008060408385031215611d6957600080fd5b611d728361198a565b9150611d806020840161198a565b90509250929050565b600181811c90821680611d9d57607f821691505b602082108103611dbd57634e487b7160e01b600052602260045260246000fd5b50919050565b634e487b7160e01b600052601160045260246000fd5b808201808211156103e1576103e1611dc3565b634e487b7160e01b600052603260045260246000fd5b600060018201611e1457611e14611dc3565b5060010190565b601f8211156105ef57600081815260208120601f850160051c81016020861015611e425750805b601f850160051c820191505b81811015611e6157828155600101611e4e565b505050505050565b67ffffffffffffffff831115611e8157611e81611adb565b611e9583611e8f8354611d89565b83611e1b565b6000601f841160018114611ec95760008515611eb15750838201355b600019600387901b1c1916600186901b178355611f23565b600083815260209020601f19861690835b82811015611efa5786850135825560209485019460019092019101611eda565b5086821015611f175760001960f88860031b161c19848701351681555b505060018560011b0183555b5050505050565b60208152816020820152818360408301376000818301604090810191909152601f909201601f19160101919050565b60008351611f6b81846020880161190e565b835190830190611f7f81836020880161190e565b01949350505050565b815167ffffffffffffffff811115611fa257611fa2611adb565b611fb681611fb08454611d89565b84611e1b565b602080601f831160018114611feb5760008415611fd35750858301515b600019600386901b1c1916600185901b178555611e61565b600085815260208120601f198616915b8281101561201a57888601518255948401946001909101908401611ffb565b50858210156120385787850151600019600388901b60f8161c191681555b5050505050600190811b01905550565b818103818111156103e1576103e1611dc3565b60006001600160a01b0380871683528086166020840152508360408301526080606083015261208d6080830184611932565b9695505050505050565b6000602082840312156120a957600080fd5b8151611367816118db56fea2646970667358221220c344647756be02610d0e2ff235393840b9dcd901278c2270cad9676d64c2afd364736f6c63430008110033",
  "linkReferences": {},
  "deployedLinkReferences": {}
}